S01200006B7572735F776F726B312E73726563FA
S113000071C000008FC000008DC000008BC00000D4
S113001089C0000087C0000085C0000083C00000C4
S113002081C000007FC000007DC000007BC00000D4
S113003079C0000077C0000075C0000073C00000E4
S113004071C000006FC000006DC000006BC00000F4
S113005069C0000067C0000065C0000063C0000004
S113006061C000005FC000005DC000005BC0000014
S113007059C0000057C0000055C0000053C0000024
S113008051C000004FC000004DC000004BC0000034
S113009085C1000047C0000045C0000043C0000007
S11300A041C000003FC000003DC000003BC0000054
S11300B039C0000037C0000035C0000033C0000064
S11300C031C000002FC000002DC000002BC0000074
S11300D029C0000027C0000025C0000023C0000084
S11300E021C0000011241FBECFEFD1E2DEBFCDBF7F
S11300F000E00CBF12E0A0E0B2E0E4E7F4E300E0CB
S11301000BBF02C007900D92A238B107D9F722E0C5
S1130110A2E8B2E001C01D92A638B207E1F7FDD112
S11301200C94381A6DCF282F30E035952795822707
S1130130089520E0882329F0282790E09595879555
S1130140F9CF822F089588B18F7288B987B1806DF5
S113015087B912B88FEF81B9089512B890E498B9AD
S1130160E7ECF0E03197F1F700C0000098B19F662A
S113017098B992B1892B82B988B18F7B88B98FE8FD
S113018091E00197F1F700C00000089588E3E5DFEE
S11301908CE0E3DF86E0E1DF84E1DFDF82E0DDDFC6
S11301A08FE19EE40197F1F700C00000089512B8B2
S11301B080E488B987EC90E00197F1F700C0000073
S11301C088B18F6688B982B1816082B988B18F7B2A
S11301D088B98FE19EE40197F1F700C0000008950B
S11301E012B890E498B9E7E1F1E03197F1F700C073
S11301F0000098B19F6698B9F0E46F9F800D1124B8
S1130200806882B988B18F7B88B987E191E00197D2
S1130210F1F700C000000895CF93DF93EC01862F1F
S1130220642FDEDF80E090E0FE0101900020E9F71A
S11302303197EC1BFD0B8E179F071CF512B820E4B9
S113024028B9E7E1F1E03197F1F700C0000028B1E7
S1130250206128B932B1FE01E80FF91F2081232B58
S113026022B9E7E1F1E03197F1F700C000002FEB8C
S113027028B9EFE8F1E03197F1F700C000000196EA
S1130280D3CFDF91CF91089580E884B985B92FEF5A
S113029034E39CE0215030409040E1F700C000007E
S11302A015B82FEF30E792E0215030409040E1F74D
S11302B000C0000085B92FEF34E38CE021503040BA
S11302C08040E1F700C0000015B89FEF27EA31E64F
S11302D0915020403040E1F700C0000008950F9392
S11302E01F93CF93DF938C01C0E0D0E0F80101901D
S11302F00020E9F73197E01BF10BCE17DF0744F438
S1130300F801EC0FFD1F80810E9417162196EECF95
S1130310DF91CF911F910F910895DF92EF92FF9299
S11303200F931F93CF93DF93E82ED92E162F072F09
S11303308FE5F9DEC82F8AE5F6DED82F8C2FF9DE9B
S1130340C82F8D2FF6DEF82E1F92CF9386E092E011
S11303509F938F93CCE0D2E0DF93CF93DF92EF9221
S11303600E945D171F92FF9281E192E09F938F9309
S1130370DF93CF930F931F930E945D178DB79EB7A2
S113038040960FB6F8949EBF0FBE8DBFDF91CF91FC
S11303901F910F91FF90EF90DF9008951F920F929D
S11303A00FB60F9211240BB60F92EF92FF920F9398
S11303B01F932F933F934F935F936F937F938F93E9
S11303C09F93AF93BF93EF93FF93CF93DF93CDB7F7
S11303D0DEB7CA54D109DEBFCDBF1091CE008DE087
S11303E00E9417168AE00E941716113309F060C0A4
S11303F07E0181E2E80EF11C8E010F5C1F4FB701F4
S1130400C8018BDFFF92EF921F930F9387E192E075
S11304109F938F93005311091F930F930E945D17AD
S1130420F80101900020E9F73197BF01601B710BBF
S1130430C80170D27C0182E292E051DFC8014FDF33
S11304408DE00E9417168AE00E9417168DE192E053
S113045046DFC70144DF8DE00E9417168AE00E9440
S1130460171689E292E03BDFF80101900020E9F7DA
S11304703197E01BF10BFF93EF938EE092E09F9393
S11304808F93005C1F4F1F930F930E945D17C80149
S113049026DF8DE00E9417168AE00E941716C70116
S11304A00E94D4160FB6F894DEBF0FBECDBF15C0A0
S11304B0123351F481E392E012DF8DE00E941716AB
S11304C08AE00E94171609C08EE392E008DF8DE0EF
S11304D00E9417168AE00E941716C65BDF4F0FB6FC
S11304E0F894DEBF0FBECDBFDF91CF91FF91EF91A6
S11304F0BF91AF919F918F917F916F915F914F9138
S11305003F912F911F910F91FF90EF900F900BBE91
S11305100F900FBE0F901F901895CF93DF93CDB718
S1130520DEB7A0970FB6F894DEBF0FBECDBF0BDECB
S11305302DDE87E690E00E94F715789489E492E036
S1130540CEDE8DE00E9417168AE00E9417162FDE79
S113055040E060E087E592E05FDE41E060E082E653
S113056092E05ADE2FEF87EA91E6215080409040D6
S1130570E1F700C000001BDE62E170E08CE692E06F
S1130580C9D18C018CE692E0AADE8DE00E94171698
S11305908AE00E941716C801A2DE8DE00E94171699
S11305A08AE00E94171670DEBE016F5F7F4FCE0196
S11305B04196B3DEFCDD2FEF87EE93E021508040BF
S11305C09040E1F700C0000040E060E0CE014196B9
S11305D023DE41E060E0CE0101961EDE55DEE4CF6D
S11305E09C012F733078332334F421503109206C6B
S11305F03F6F2F5F3F4F2833310511F00196F0CF45
S11306000896089580E008953F924F925F926F920A
S11306107F928F929F92AF92BF92CF92DF92EF928E
S1130620FF920F931F93CF93DF934C015B01CB0198
S1130630D7DF6C01EC0128970E943C167C0180E016
S113064090E08C179D07DCF48A159B054CF4F401AB
S1130650E80FF91F2081F701E80FF91F20830DC06F
S11306608A159B0531F420E8F701E80FF91F208370
S113067004C0F701E80FF91F10820196E2CFAA0C1B
S1130680BB1CAA0CBB1CAA0CBB1C3A2C4B2C1B2D50
S1130690110F110B512E612E712E812E912EB2DF6E
S11306A081111EC0E0E0F0E0CC15DD05CCF5D701EA
S11306B0AC0FBD1F5F01AA0CBB1CAA0CBB1CAA0C6F
S11306C0BB1C232D342D412F552D662D772D882DC0
S11306D0992D0A2D0E9420162C9321963196E4CF51
S11306E08823F1F0E7E0F0E0CC15DD05CCF4D70188
S11306F0AC0FBD1F5F01AA0CBB1CAA0CBB1CAA0C2F
S1130700BB1C232D342D412F552D662D772D882D7F
S1130710992D0A2D0E9420162C9321963197E4CF0F
S1130720C701DF91CF911F910F91FF90EF90DF9060
S1130730CF90BF90AF909F908F907F906F905F907D
S11307404F903F900895CF92DF92EF92FF920F93D4
S11307501F93CF93DF936C017B018A01E90152DF80
S1130760811124C081E093E2A5E4B7E6F601808319
S11307709183A283B38389E89BEAADECBFEEF701D2
S113078080839183A283B3838EEF9CEDAAEBB8E9B7
S1130790F80180839183A283B38386E794E5A2E37F
S11307A0B0E188839983AA83BB8325C0882319F188
S11307B087E695E4A3E2B1E0F60180839183A28306
S11307C0B3838FEE9DECABEAB9E8F70180839183A4
S11307D0A283B38388E99AEBACEDBEEFF801808382
S11307E09183A283B38380E192E3A4E5B6E788838F
S11307F09983AA83BB83DF91CF911F910F91FF90BF
S1130800EF90DF90CF900895CF92DF92EF92FF9216
S11308109B01FC0140815181628173816A017B01EA
S1130820022E04C0CC0CDD1CEE1CFF1C0A94D2F773
S11308303195219531092F7104C0769567955795A7
S113084047952A95D2F74C295D296E297F29408343
S1130850518362837383FF90EF90DF90CF9008956C
S11308604F925F926F927F928F929F92AF92BF92BC
S1130870CF92DF92EF92FF920F931F93CF93DF9368
S113088000D01F92CDB7DEB73C012B01FC014081A3
S1130890518162817381888D998DAA8DBB8D840F5E
S11308A0951FA61FB71F8E0D9F1DA01FB11F880E79
S11308B0991EAA1EBB1E89829A82AB82BC82B60193
S11308C0CE010196A1DFF2014081518162817381E1
S11308D089819A81AB81BC81840F951FA61FB71FA4
S11308E0F30180839183A283B3830F900F900F90C1
S11308F00F90DF91CF911F910F91FF90EF90DF90B8
S1130900CF90BF90AF909F908F907F906F905F90AB
S11309104F9008952F923F924F925F926F927F92E1
S11309208F929F92AF92BF92CF92DF92EF92FF92FB
S11309300F931F93CF93DF93CDB7DEB7E8970FB62E
S1130940F894DEBF0FBECDBF7C018B01CB0148DE26
S113095098AF8FABB801C70157DE3C019E01235FFE
S11309603F4FAE01475F5F4FBE016B5F7F4FCE01CC
S11309700196E9DE00E410E01EA21DA218012DA1DB
S11309803EA14FA958AD2417350714F00C940B154C
S113099089819A81AB81BC818FA398A7A9A7BAA7A3
S11309A02D813E814F8158852BA73CA74DA75EA77B
S11309B089859A85AB85BC858FA798ABA9ABBAAB63
S11309C02D853E854F8558892BAB3CAB4DAB5EAB3B
S11309D080E490E00E943C162C016DA17EA16C5F26
S11309E07F4F4DA15EA100E010E0421553050CF0CD
S11309F042C0F801EE0FFF1FEE0FFF1FE40DF51DBF
S1130A001082118212821382CA0120E030E05CA3BA
S1130A104BA38617970734F580809180A280B3801A
S1130A20D301A80FB91F5C91D901AA0FBB1FAA0F4C
S1130A30BB1FAA0FBB1FC52ED12CE12CF12C04C067
S1130A40CC0CDD1CEE1CFF1CAA95D2F7C828D928B3
S1130A50EA28FB28C082D182E282F38201962F5FCA
S1130A603F4FD7CF4BA15CA14C5F5F4F6C5F7F4F73
S1130A700F5F1F4FBACF4D815E816F8178850985E5
S1130A801A852B853C85042315232623372340957B
S1130A905095609570958D859E85AF85B889842322
S1130AA09523A623B723802B912BA22BB32BF201E2
S1130AB0E080F18002811381BF93AF939F938F9362
S1130AC00F2EF8E78F2EF4EA9F2EFAE6AF2EF7EDFD
S1130AD0BF2EF02D0F2EF7E0CF2ED12CF02D9E013E
S1130AE0235F3F4FAE01475F5F4FBE016B5F7F4F98
S1130AF0CE010196B5DE49815A816B817C810D81DD
S1130B001E812F81388504231523262337234095FE
S1130B1050956095709589859A85AB85BC858423AD
S1130B209523A623B723802B912BA22BB32BF20161
S1130B30E480F58006811781BF93AF939F938F93D1
S1130B400F2EF6E58F2EF7EB9F2EF7ECAF2EF8EE77
S1130B50BF2EF02D0F2EFCE0CF2ED12CF02D9E01B8
S1130B60275F3F4FAE014B5F5F4FBE016F5F7F4F0B
S1130B70CE010D9675DE4D855E856F857889098178
S1130B801A812B813C810423152326233723409586
S1130B905095609570958D819E81AF81B885842331
S1130BA09523A623B723802B912BA22BB32BF201E1
S1130BB0E084F18402851385BF93AF939F938F9351
S1130BC00F2EFBED8F2EF0E79F2EF0E2AF2EF4E216
S1130BD0BF2EF02D0F2EF1E1CF2ED12CF02D9E0142
S1130BE02B5F3F4FAE014F5F5F4FBE01635F7F4F8F
S1130BF0CE01099635DE49855A856B857C850D8540
S1130C001E852F85388904231523262337234095F1
S1130C1050956095709589819A81AB81BC818423BC
S1130C209523A623B723802B912BA22BB32BF20160
S1130C30E484F58406851785BF93AF939F938F93C0
S1130C400F2EFEEE8F2EFEEC9F2EFDEBAF2EF1EC61
S1130C50BF2EF02D0F2EF6E1CF2ED12CF02D9E01BC
S1130C602F5F3F4FAE01435F5F4FBE01675F7F4F12
S1130C70CE010596F5DD4D815E816F81788509850C
S1130C801A852B853C850423152326233723409579
S1130C905095609570958D859E85AF85B889842320
S1130CA09523A623B723802B912BA22BB32BF201E0
S1130CB0E088F18802891389BF93AF939F938F9340
S1130CC00F2EFFEA8F2EFFE09F2EFCE7AF2EF5EFED
S1130CD0BF2EF02D0F2EF7E0CF2ED12CF02D9E013C
S1130CE0235F3F4FAE01475F5F4FBE016B5F7F4F96
S1130CF0CE010196B5DD49815A816B817C810D81DC
S1130D001E812F81388504231523262337234095FC
S1130D1050956095709589859A85AB85BC858423AB
S1130D209523A623B723802B912BA22BB32BF2015F
S1130D30E488F58806891789BF93AF939F938F93AF
S1130D400F2EFAE28F2EF6EC9F2EF7E8AF2EF7E483
S1130D50BF2EF02D0F2EFCE0CF2ED12CF02D9E01B6
S1130D60275F3F4FAE014B5F5F4FBE016F5F7F4F09
S1130D70CE010D9675DD4D855E856F857889098177
S1130D801A812B813C810423152326233723409584
S1130D905095609570958D819E81AF81B88584232F
S1130DA09523A623B723802B912BA22BB32BF201DF
S1130DB0E08CF18C028D138DBF93AF939F938F932F
S1130DC00F2EF3E18F2EF6E49F2EF0E3AF2EF8EA18
S1130DD0BF2EF02D0F2EF1E1CF2ED12CF02D9E0140
S1130DE02B5F3F4FAE014F5F5F4FBE01635F7F4F8D
S1130DF0CE01099635DD49855A856B857C850D853F
S1130E001E852F85388904231523262337234095EF
S1130E1050956095709589819A81AB81BC818423BA
S1130E209523A623B723802B912BA22BB32BF2015E
S1130E30E48CF58C068D178DBF93AF939F938F939E
S1130E400F2E88248394F5E99F2EF6E4AF2EFDEF50
S1130E50BF2EF02D0F2EF6E1CF2ED12CF02D9E01BA
S1130E602F5F3F4FAE01435F5F4FBE01675F7F4F10
S1130E70CE010596F5DC4D815E816F81788509850B
S1130E801A852B853C850423152326233723409577
S1130E905095609570958D859E85AF85B88984231E
S1130EA09523A623B723802B912BA22BB32BF201DE
S1130EB0E0A0F1A002A113A10FB6F894DEBF0FBE0B
S1130EC0CDBFBF93AF939F938F930F2EF8ED8F2ECB
S1130ED0F8E99F2EF0E8AF2EF9E6BF2EF02D0F2E85
S1130EE0F7E0CF2ED12CF02D9E01235F3F4FAE01B2
S1130EF0475F5F4FBE016B5F7F4FCE010196B0DC51
S1130F0049815A816B817C810D811E812F813885B5
S1130F100423152326233723409550956095709517
S1130F2089859A85AB85BC8584239523A623B7231D
S1130F30802B912BA22BB32BF201E4A0F5A006A1E8
S1130F4017A1BF93AF939F938F930F2EFFEA8F2E1A
S1130F50F7EF9F2EF4E4AF2EFBE8BF2EF02D0F2EFB
S1130F60FCE0CF2ED12CF02D9E01275F3F4FAE0128
S1130F704B5F5F4FBE016F5F7F4FCE010D9670DCFC
S1130F804D855E856F85788909811A812B813C8125
S1130F900423152326233723409550956095709597
S1130FA08D819E81AF81B88584239523A623B723A1
S1130FB0802B912BA22BB32BF201E0A4F1A402A568
S1130FC013A5BF93AF939F938F930F2EF1EB8F2EA7
S1130FD0FBE59F2EAA24AA94BA2CF02D0F2EF1E142
S1130FE0CF2ED12CF02D9E012B5F3F4FAE014F5FD2
S1130FF05F4FBE01635F7F4FCE01099631DC4985A7
S11310005A856B857C850D851E852F85388904233B
S11310101523262337234095509560957095898133
S11310209A81AB81BC8184239523A623B723802B8B
S1131030912BA22BB32BF201E4A4F5A406A517A5CA
S1131040BF93AF939F938F930F2EFEEB8F2EF7EDED
S11310509F2EFCE5AF2EF9E8BF2EF02D0F2EF6E102
S1131060CF2ED12CF02D9E012F5F3F4FAE01435F59
S11310705F4FBE01675F7F4FCE010596F1DB4D8167
S11310805E816F81788509851A852B853C850423CB
S113109015232623372340955095609570958D85AB
S11310A09E85AF85B88984239523A623B723802BF7
S11310B0912BA22BB32BF201E0A8F1A802A913A94A
S11310C0BF93AF939F938F930F2EF2E28F2EF1E194
S11310D09F2EF0E9AF2EFBE6BF2EF02D0F2EF7E08A
S11310E0CF2ED12CF02D9E01235F3F4FAE01475FE1
S11310F05F4FBE016B5F7F4FCE010196B1DB49812B
S11311005A816B817C810D811E812F813885042356
S1131110152326233723409550956095709589852E
S11311209A85AB85BC8584239523A623B723802B7E
S1131130912BA22BB32BF201E4A8F5A806A917A9B9
S1131140BF93AF939F938F930F2EF3E98F2EF1E705
S11311509F2EF8E9AF2EFDEFBF2EF02D0F2EFCE0F1
S1131160CF2ED12CF02D9E01275F3F4FAE014B5F58
S11311705F4FBE016F5F7F4FCE010D9671DB4D85D2
S11311805E856F85788909811A812B813C810423CE
S113119015232623372340955095609570958D81AE
S11311A09E81AF81B88584239523A623B723802B02
S11311B0912BA22BB32BF201E0ACF1AC02AD13AD39
S11311C0BF93AF939F938F930F2EFEE88F2EF3E47C
S11311D09F2EF9E7AF2EF6EABF2EF02D0F2EF1E188
S11311E0CF2ED12CF02D9E012B5F3F4FAE014F5FD0
S11311F05F4FBE01635F7F4FCE01099631DB4985A6
S11312005A856B857C850D851E852F853889042339
S11312101523262337234095509560957095898131
S11312209A81AB81BC8184239523A623B723802B89
S1131230912BA22BB32BF201E4ACF5AC06AD17ADA8
S1131240BF93AF939F938F930F2EF1E28F2EF8E00D
S11312509F2EF4EBAF2EF9E4BF2EF02D0F2EF6E106
S1131260CF2ED12CF02D9E012F5F3F4FAE01435F57
S11312705F4FBE01675F7F4FCE010596F1DA4D8562
S11312805E856F8578890D811E812F8138850423C1
S113129015232623372340955095609570958985AD
S11312A09A85AB85BC8584239523A623B723802BFD
S11312B0912BA22BB32BF201E480F58006811781D8
S11312C00FB6F894DEBF0FBECDBFBF93AF939F930D
S11312D08F930F2EF2E68F2EF5E29F2EFEE1AF2EB6
S11312E0F6EFBF2EF02D0F2EF5E0CF2ED12CF02DE2
S11312F09E01235F3F4FAE01475F5F4FBE016B5FAF
S11313007F4FCE010196ACDA49855A856B857C8581
S113131009811A812B813C81042315232623372339
S113132040955095609570958D819E81AF81B8856B
S113133084239523A623B723802B912BA22BB32B95
S1131340F201E08CF18C028D138DBF93AF939F93C8
S11313508F930F2EF0E48F2EF3EB9F2EA82CF0EC3E
S1131360BF2EF02D0F2EF9E0CF2ED12CF02D9E01A3
S1131370275F3F4FAE014B5F5F4FBE016F5F7F4FF3
S1131380CE010D966DDA4D815E816F8178850D8574
S11313901E852F853889042315232623372340955A
S11313A050956095709589819A81AB81BC81842325
S11313B09523A623B723802B912BA22BB32BF201C9
S11313C0E4A4F5A406A517A5BF93AF939F938F93A9
S11313D00F2EF1E58F2EFAE59F2EFEE5AF2EF6E2F5
S11313E0BF2EF02D0F2EFEE0CF2ED12CF02D9E011E
S11313F02B5F3F4FAE014F5F5F4FBE01635F7F4F77
S1131400CE0109962DDA49815A816B817C81098547
S11314101A852B853C8504231523262337234095E1
S11314205095609570958D859E85AF85B889842388
S11314309523A623B723802B912BA22BB32BF20148
S1131440E080F18002811381BF93AF939F938F93C8
S11314500F2EFAEA8F2EF7EC9F2EF6EBAF2EF9EE55
S1131460BF2EF02D0F2EF4E1CF2ED12CF02D9E01A6
S11314702F5F3F4FAE01435F5F4FBE01675F7F4FFA
S1131480CE010596EDD94D855E856F8578890D81F0
S11314901E812F8138850423152326233723409565
S11314A050956095709589859A85AB85BC85842314
S11314B09523A623B723802B912BA22BB32BF201C8
S11314C0E488F58806891789BF93AF939F938F9318
S11314D00F2EFDE58F2EF0E19F2EFFE2AF2EF6EDED
S11314E0BF2EF02D0F2EF5E0CF2ED12CF02D9E0126
S11314F0235F3F4FAE01475F5F4FBE016B5F7F4F7E
S1131500CE010196ADD949855A856B857C850981C3
S11315101A812B813C8104231523262337234095EC
S11315205095609570958D819E81AF81B885842397
S11315309523A623B723802B912BA22BB32BF20147
S1131540E0A4F1A402A513A5BF93AF939F938F9337
S11315500F2EF3E58F2EF4E19F2EF4E4AF2EF2E08C
S1131560BF2EF02D0F2EF9E0CF2ED12CF02D9E01A1
S1131570275F3F4FAE014B5F5F4FBE016F5F7F4FF1
S1131580CE010D966DD94D815E816F8178850D8573
S11315901E852F8538890423152326233723409558
S11315A050956095709589819A81AB81BC81842323
S11315B09523A623B723802B912BA22BB32BF201C7
S11315C0E4ACF5AC06AD17ADBF93AF939F938F9387
S11315D00F2EF1E88F2EF6EE9F2EF1EAAF2EF8EDE6
S11315E0BF2EF02D0F2EFEE0CF2ED12CF02D9E011C
S11315F02B5F3F4FAE014F5F5F4FBE01635F7F4F75
S1131600CE0109962DD949815A816B817C81098546
S11316101A852B853C8504231523262337234095DF
S11316205095609570958D859E85AF85B889842386
S11316309523A623B723802B912BA22BB32BF20146
S1131640E088F18802891389BF93AF939F938F93A6
S11316500F2EF8EC8F2EFBEF9F2EF3EDAF2EF7EE4F
S1131660BF2EF02D0F2EF4E1CF2ED12CF02D9E01A4
S11316702F5F3F4FAE01435F5F4FBE01675F7F4FF8
S1131680CE010596EDD84D855E856F8578890D81EF
S11316901E812F8138850423152326233723409563
S11316A050956095709589859A85AB85BC85842312
S11316B09523A623B723802B912BA22BB32BF201C6
S11316C0E4A0F5A006A117A10FB6F894DEBF0FBEE3
S11316D0CDBFBF93AF939F938F930F2EF6EE8F2EB4
S11316E0FDEC9F2EF1EEAF2EF1E2BF2EF02D0F2E6A
S11316F0F5E0CF2ED12CF02D9E01235F3F4FAE019C
S1131700475F5F4FBE016B5F7F4FCE010196A8D844
S113171049855A856B857C8509811A812B813C8199
S113172004231523262337234095509560957095FF
S11317308D819E81AF81B88584239523A623B72309
S1131740802B912BA22BB32BF201E0ACF1AC02ADB8
S113175013ADBF93AF939F938F930F2EF6ED8F2E00
S1131760F7E09F2EF7E3AF2EF3ECBF2EF02D0F2EF4
S1131770F9E0CF2ED12CF02D9E01275F3F4FAE0113
S11317804B5F5F4FBE016F5F7F4FCE010D9668D8F0
S11317904D815E816F8178850D851E852F85388901
S11317A0042315232623372340955095609570957F
S11317B089819A81AB81BC8184239523A623B72395
S11317C0802B912BA22BB32BF201E484F5840685A4
S11317D01785BF93AF939F938F930F2EF7E88F2EA8
S11317E0FDE09F2EF5EDAF2EF4EFBF2EF02D0F2E62
S11317F0FEE0CF2ED12CF02D9E012B5F3F4FAE018A
S11318004F5F5F4FBE01635F7F4FCE01099628D8BB
S113181049815A816B817C8109851A852B853C8598
S113182004231523262337234095509560957095FE
S11318308D859E85AF85B88984239523A623B723F8
S1131840802B912BA22BB32BF201E0A0F1A002A1DB
S113185013A1BF93AF939F938F930F2EFDEE8F2E03
S1131860F4E19F2EFAE5AF2EF5E4BF2EF02D0F2EF6
S1131870F4E1CF2ED12CF02D9E012F5F3F4FAE010E
S1131880435F5F4FBE01675F7F4FCE0105960E94A5
S113189030044D855E856F8578890D811E812F8189
S11318A038850423152326233723409550956095C6
S11318B0709589859A85AB85BC8584239523A62359
S11318C0B723802B912BA22BB32BF201E4A8F5A80C
S11318D006A917A9BF93AF939F938F930F2EF5E09B
S11318E08F2EF9EE9F2EF3EEAF2EF9EABF2EF02DD8
S11318F00F2EF5E0CF2ED12CF02D9E01235F3F4F0C
S1131900AE01475F5F4FBE016B5F7F4FCE01019613
S11319100E94300449855A856B857C8509811A812A
S11319202B813C810423152326233723409550958E
S1131930609570958D819E81AF81B88584239523B0
S1131940A623B723802B912BA22BB32BF201E08487
S1131950F18402851385BF93AF939F938F930F2ECA
S1131960F8EF8F2EF3EA9F2EFFEEAF2EFCEFBF2E83
S1131970F02D0F2EF9E0CF2ED12CF02D9E01275FF4
S11319803F4FAE014B5F5F4FBE016F5F7F4FCE0194
S11319900D960E9430044D815E816F8178850D859E
S11319A01E852F8538890423152326233723409544
S11319B050956095709589819A81AB81BC8184230F
S11319C09523A623B723802B912BA22BB32BF201B3
S11319D0E48CF58C068D178DBF93AF939F938F93F3
S11319E00F2EF9ED8F2EF2E09F2EFFE6AF2EF7E6D5
S11319F0BF2EF02D0F2EFEE0CF2ED12CF02D9E0108
S1131A002B5F3F4FAE014F5F5F4FBE01635F7F4F60
S1131A10CE0109960E94300449815A816B817C81F0
S1131A2009851A852B853C85042315232623372312
S1131A3040955095609570958D859E85AF85B88944
S1131A4084239523A623B723802B912BA22BB32B7E
S1131A50F201E0A8F1A802A913A9BF93AF939F9341
S1131A608F930F2EFAE88F2EFCE49F2EFAE2AF2E0E
S1131A70FDE8BF2EF02D0F2EF4E1CF2ED12CF02D4A
S1131A809E012F5F3F4FAE01435F5F4FBE01675F13
S1131A907F4FCE0105960E9430044D815E816F8197
S1131AA0788589859A85AB85BC8584279527A62763
S1131AB0B7274D855E856F85788984279527A62766
S1131AC0B727F201E488F588068917890FB6F894D8
S1131AD0DEBF0FBECDBFBF93AF939F938F930F2EE7
S1131AE0F2E48F2EF9E39F2EFAEFAF2EBB24BA94C3
S1131AF0F02D6894CC24C2F8D12C9E01235F3F4F73
S1131B00AE01475F5F4FBE016B5F7F4FCE01019611
S1131B100E94300449815A816B817C818D819E8130
S1131B20AF81B88584279527A627B72749855A8585
S1131B306B857C8584279527A627B727F201E0A02B
S1131B40F1A002A113A1BF93AF939F938F930F2E84
S1131B50F1E88F2EF6EF9F2EF1E7AF2EF7E8BF2EB8
S1131B60F02D0F2EFBE0CF2ED12CF02D9E01275F00
S1131B703F4FAE014B5F5F4FBE016F5F7F4FCE01A2
S1131B800D960E9430044D855E856F857889898124
S1131B909A81AB81BC8184279527A627B7274D81DD
S1131BA05E816F81788584279527A627B727F20160
S1131BB0E4A4F5A406A517A5BF93AF939F938F93B1
S1131BC00F2EF2E28F2EF1E69F2EFDE9AF2EFDE6F9
S1131BD0BF2EF02D6894CC24C4F8D12C9E012B5F29
S1131BE03F4FAE014F5F5F4FBE01635F7F4FCE013A
S1131BF009960E94300449855A856B857C858D85BC
S1131C009E85AF85B88984279527A627B72749815C
S1131C105A816B817C8184279527A627B727F201F7
S1131C20E0ACF1AC02AD13ADBF93AF939F938F9330
S1131C300F2EFCE08F2EF8E39F2EF5EEAF2EFDEF76
S1131C40BF2EF02D0F2EF7E1CF2ED12CF02D9E01BB
S1131C502F5F3F4FAE01435F5F4FBE01675F7F4F12
S1131C60CE0105960E9430044D815E816F81788596
S1131C7089859A85AB85BC8584279527A627B727B0
S1131C804D855E856F85788984279527A627B72794
S1131C90F201E480F58006811781BF93AF939F938F
S1131CA08F930F2EF4E48F2EFAEE9F2EFEEBAF2EC1
S1131CB0F4EABF2EF02D6894CC24C2F8D12C9E01F6
S1131CC0235F3F4FAE01475F5F4FBE016B5F7F4FA6
S1131CD0CE0101960E94300449815A816B817C8136
S1131CE08D819E81AF81B88584279527A627B72744
S1131CF049855A856B857C8584279527A627B72730
S1131D00F201E088F18802891389BF93AF939F930E
S1131D108F930F2EF9EA8F2EFFEC9F2EFEEDAF2E40
S1131D20FBE4BF2EF02D0F2EFBE0CF2ED12CF02D97
S1131D309E01275F3F4FAE014B5F5F4FBE016F5F58
S1131D407F4FCE010D960E9430044D855E856F85D0
S1131D50788989819A81AB81BC8184279527A627BC
S1131D60B7274D815E816F81788584279527A627C3
S1131D70B727F201E48CF58C068D178DBF93AF93D2
S1131D809F938F930F2EF0E68F2EFBE49F2EFBEB99
S1131D90AF2EF6EFBF2EF02D6894CC24C4F8D12CCE
S1131DA09E012B5F3F4FAE014F5F5F4FBE01635FEC
S1131DB07F4FCE0109960E94300449855A856B8570
S1131DC07C858D859E85AF85B88984279527A62730
S1131DD0B72749815A816B817C8184279527A6275F
S1131DE0B727F201E0A4F1A402A513A5BF93AF9312
S1131DF09F938F930F2EF0E78F2EFCEB9F2EFFEB1C
S1131E00AF2EFEEBBF2EF02D0F2EF7E1CF2ED12CEF
S1131E10F02D9E012F5F3F4FAE01435F5F4FBE0128
S1131E20675F7F4FCE0105960E9430044D815E812D
S1131E306F81788589859A85AB85BC8584279527AC
S1131E40A627B7274D855E856F85788984279527D2
S1131E50A627B727F201E4A8F5A806A917A90FB683
S1131E60F894DEBF0FBECDBFBF93AF939F938F9304
S1131E700F2EF6EC8F2EFEE79F2EFBE9AF2EF8E235
S1131E80BF2EF02D6894CC24C2F8D12C9E01235F80
S1131E903F4FAE01475F5F4FBE016B5F7F4FCE0187
S1131EA001960E94300449815A816B817C818D8125
S1131EB09E81AF81B88584279527A627B7274985B2
S1131EC05A856B857C8584279527A627B727F20139
S1131ED0E080F18002811381BF93AF939F938F932E
S1131EE00F2EFAEF8F2EF7E29F2EF1EAAF2EFAEEC5
S1131EF0BF2EF02D0F2EFBE0CF2ED12CF02D9E0106
S1131F00275F3F4FAE014B5F5F4FBE016F5F7F4F57
S1131F10CE010D960E9430044D855E856F857889CB
S1131F2089819A81AB81BC8184279527A627B7270D
S1131F304D815E816F81788584279527A627B727F1
S1131F40F201E484F58406851785BF93AF939F93CC
S1131F508F930F2EF5E88F2EF0E39F2EFFEEAF2E1A
S1131F60F4EDBF2EF02D6894CC24C4F8D12C9E013E
S1131F702B5F3F4FAE014F5F5F4FBE01635F7F4FEB
S1131F80CE0109960E94300449855A856B857C856B
S1131F908D859E85AF85B88984279527A627B72781
S1131FA049815A816B817C8184279527A627B7278D
S1131FB0F201E08CF18C028D138DBF93AF939F934C
S1131FC08F930F2EF5E08F2EFDE19F2EF8E8AF2EB4
S1131FD0F4E0BF2EF02D0F2EF7E1CF2ED12CF02DF3
S1131FE09E012F5F3F4FAE01435F5F4FBE01675FAE
S1131FF07F4FCE0105960E9430044D815E816F8132
S1132000788589859A85AB85BC8584279527A627FD
S1132010B7274D855E856F85788984279527A62700
S1132020B727F201E4A0F5A006A117A1BF93AF93CF
S11320309F938F930F2EF9E38F2EF0ED9F2EF4EDE7
S1132040AF2EF9EDBF2EF02D6894CC24C2F8D12C1C
S11320509E01235F3F4FAE01475F5F4FBE016B5F41
S11320607F4FCE0101960E94300449815A816B81D1
S11320707C818D819E81AF81B88584279527A62791
S1132080B72749855A856B857C8584279527A6279C
S1132090B727F201E0A8F1A802A913A9BF93AF934F
S11320A09F938F930F2EF5EE8F2EF9E99F2EFBED64
S11320B0AF2EF6EEBF2EF02D0F2EFBE0CF2ED12C3F
S11320C0F02D9E01275F3F4FAE014B5F5F4FBE0176
S11320D06F5F7F4FCE010D960E9430044D855E8563
S11320E06F85788989819A81AB81BC818427952702
S11320F0A627B7274D815E816F8178858427952730
S1132100A627B727F201E4ACF5AC06AD17ADBF9333
S1132110AF939F938F930F2EF8EF8F2EFCE79F2E94
S1132120F2EAAF2EFFE1BF2EF02D6894CC24C4F860
S1132130D12C9E012B5F3F4FAE014F5F5F4FBE011D
S1132140635F7F4FCE0109960E94300449855A850A
S11321506B857C858D859E85AF85B8898427952779
S1132160A627B72749815A816B817C8184279527CB
S1132170A627B727F201E084F18402851385BF9373
S1132180AF939F938F930F2EF5E68F2EF6E59F2E38
S1132190FCEAAF2EF4ECBF2EF02D0F2EF7E1CF2E7C
S11321A0D12CF02D9E012F5F3F4FAE01435F5F4F57
S11321B0BE01675F7F4FCE0105960E9430048D8576
S11321C09E85AF85B88980959095A095B0954D81F1
S11321D05E816F817885842B952BA62BB72B49853F
S11321E05A856B857C8584279527A627B727F20116
S11321F0E080F180028113810FB6F894DEBF0FBE38
S1132200CDBFBF93AF939F938F930F2EF4E48F2E84
S1132210F2E29F2EF9E2AF2EF4EFBF2EF02D0F2E37
S1132220F6E0CF2ED12CF02D9E01235F3F4FAE015F
S1132230475F5F4FBE016B5F7F4FCE0101960E94E7
S1132240300489859A85AB85BC8580959095A09549
S1132250B09549815A816B817C81842B952BA62B67
S1132260B72B4D815E816F81788584279527A627BA
S1132270B727F201E48CF58C068D178DBF93AF93CD
S11322809F938F930F2EF7E98F2E99249A94FAE255
S1132290AF2EF3E4BF2EF02D0F2EFAE0CF2ED12C6B
S11322A0F02D9E01275F3F4FAE014B5F5F4FBE0194
S11322B06F5F7F4FCE010D960E9430048D819E8109
S11322C0AF81B88580959095A095B0954D855E8534
S11322D06F857889842B952BA62BB72B49815A813E
S11322E06B817C8184279527A627B727F201E0AC70
S11322F0F1AC02AD13ADBF93AF939F938F930F2EA9
S1132300F7EA8F2EF3E29F2EF4E9AF2EFBEABF2EFD
S1132310F02D0F2EFFE0CF2ED12CF02D9E012B5F40
S11323203F4FAE014F5F5F4FBE01635F7F4FCE01F2
S113233009960E94300489819A81AB81BC81809581
S11323409095A095B09549855A856B857C85842B9D
S1132350952BA62BB72B4D855E856F8578898427B1
S11323609527A627B727F201E488F58806891789F7
S1132370BF93AF939F938F930F2EF9E38F2EF0EAC1
S11323809F2EF3E9AF2EFCEFBF2EF02D0F2EF5E1BB
S1132390CF2ED12CF02D9E012F5F3F4FAE01435F16
S11323A05F4FBE01675F7F4FCE0105960E943004E8
S11323B08D859E85AF85B88980959095A095B095BB
S11323C04D815E816F817885842B952BA62BB72B4D
S11323D049855A856B857C8584279527A627B72749
S11323E0F201E0A8F1A802A913A9BF93AF939F93A8
S11323F08F930F2EF3EC8F2EF9E59F2EFBE5AF2E76
S1132400F5E6BF2EF02D0F2EF6E0CF2ED12CF02DB9
S11324109E01235F3F4FAE01475F5F4FBE016B5F7D
S11324207F4FCE0101960E94300489859A85AB8541
S1132430BC8580959095A095B09549815A816B8112
S11324407C81842B952BA62BB72B4D815E816F81CC
S1132450788584279527A627B727F201E484F58495
S113246006851785BF93AF939F938F930F2EF2E941
S11324708F2EFCEC9F2EFCE0AF2EFFE8BF2EF02D3C
S11324800F2EFAE0CF2ED12CF02D9E01275F3F4F67
S1132490AE014B5F5F4FBE016F5F7F4FCE010D9664
S11324A00E9430048D819E81AF81B885809590957E
S11324B0A095B0954D855E856F857889842B952B85
S11324C0A62BB72B49815A816B817C818427952760
S11324D0A627B727F201E0A4F1A402A513A5BF9390
S11324E0AF939F938F930F2EFDE78F2EF4EF9F2EC4
S11324F0FFEEAF2EBB24BA94F02D0F2EFFE0CF2EAB
S1132500D12CF02D9E012B5F3F4FAE014F5F5F4FEB
S1132510BE01635F7F4FCE0109960E94300489811A
S11325209A81AB81BC8180959095A095B0954985A1
S11325305A856B857C85842B952BA62BB72B4D85D3
S11325405E856F85788984279527A627B727F201AA
S1132550E480F58006811781BF93AF939F938F9397
S11325600F2EF1ED8F2EFDE59F2EF4E8AF2EF5E84A
S1132570BF2EF02D0F2EF5E1CF2ED12CF02D9E0184
S11325802F5F3F4FAE01435F5F4FBE01675F7F4FD9
S1132590CE0105960E9430048D859E85AF85B8894D
S11325A080959095A095B0954D815E816F817885D9
S11325B0842B952BA62BB72B49855A856B857C8557
S11325C084279527A627B727F201E0A0F1A002A14E
S11325D013A10FB6F894DEBF0FBECDBFBF93AF9368
S11325E09F938F930F2EFFE48F2EFEE79F2EF8EA22
S11325F0AF2EFFE6BF2EF02D0F2EF6E0CF2ED12CFE
S1132600F02D9E01235F3F4FAE01475F5F4FBE0138
S11326106B5F7F4FCE0101960E94300489859A85B5
S1132620AB85BC8580959095A095B09549815A81DC
S11326306B817C81842B952BA62BB72B4D815E81DE
S11326406F81788584279527A627B727F201E4AC04
S1132650F5AC06AD17ADBF93AF939F938F930F2E39
S1132660F0EE8F2EF6EE9F2EFCE2AF2EFEEFBF2E85
S1132670F02D0F2EFAE0CF2ED12CF02D9E01275FE6
S11326803F4FAE014B5F5F4FBE016F5F7F4FCE0187
S11326900D960E9430048D819E81AF81B88580950E
S11326A09095A095B0954D855E856F857889842B2E
S11326B0952BA62BB72B49815A816B817C8184276A
S11326C09527A627B727F201E08CF18C028D138D94
S11326D0BF93AF939F938F930F2EF4E18F2EF3E468
S11326E09F2EAA24A394F3EABF2EF02D0F2EFFE011
S11326F0CF2ED12CF02D9E012B5F3F4FAE014F5FAB
S11327005F4FBE01635F7F4FCE0109960E94300484
S113271089819A81AB81BC8180959095A095B09573
S113272049855A856B857C85842B952BA62BB72BE5
S11327304D855E856F85788984279527A627B727D9
S1132740F201E4A8F5A806A917A9BF93AF939F9334
S11327508F930F2EF1EA8F2EF1E19F2EF8E0AF2E2A
S1132760FEE4BF2EF02D0F2EF5E1CF2ED12CF02D4F
S11327709E012F5F3F4FAE01435F5F4FBE01675F16
S11327807F4FCE0105960E9430048D859E85AF85CE
S1132790B88980959095A095B0954D815E816F81A3
S11327A07885842B952BA62BB72B49855A856B8569
S11327B07C8584279527A627B727F201E088F1882E
S11327C002891389BF93AF939F938F930F2EF2E8DF
S11327D08F2EFEE79F2EF3E5AF2EF7EFBF2EF02DE1
S11327E00F2EF6E0CF2ED12CF02D9E01235F3F4F0C
S11327F0AE01475F5F4FBE016B5F7F4FCE01019615
S11328000E94300489859A85AB85BC858095909516
S1132810A095B09549815A816B817C81842B952B3D
S1132820A62BB72B4D815E816F81788584279527F0
S1132830A627B727F201E4A4F5A406A517A5BF931C
S1132840AF939F938F930F2EF5E38F2EF2EF9F2E6E
S1132850FAE3AF2EFDEBBF2EF02D0F2EFAE0CF2EB4
S1132860D12CF02D9E01275F3F4FAE014B5F5F4F90
S1132870BE016F5F7F4FCE010D960E9430048D81A3
S11328809E81AF81B88580959095A095B0954D8532
S11328905E856F857889842B952BA62BB72B498170
S11328A05A816B817C8184279527A627B727F2015B
S11328B0E084F18402851385BF93AF939F938F9334
S11328C00F2EFBEB8F2EF2ED9F2EF7EDAF2EFAE2DB
S11328D0BF2EF02D0F2EFFE0CF2ED12CF02D9E0118
S11328E02B5F3F4FAE014F5F5F4FBE01635F7F4F72
S11328F0CE0109960E94300489819A81AB81BC8102
S113290080959095A095B09549855A856B857C8571
S1132910842B952BA62BB72B4D855E856F857889E7
S113292084279527A627B727F201E4A0F5A006A1DE
S113293017A1BF93AF939F938F930F2EF1E98F2E1F
S1132940F3ED9F2EF6E8AF2EFBEEBF2EF02D0F2EEB
S1132950F5E1CF2ED12CF02D9E012F5F3F4FAE011C
S1132960435F5F4FBE01675F7F4FCE0105960E94B4
S1132970300489819A81AB81BC812FA138A549A5F6
S11329805AA5820F931FA41FB51F89839A83AB8313
S1132990BC838D819E81AF81B8852BA53CA54DA5B7
S11329A05EA5820F931FA41FB51F8D839E83AF83E3
S11329B0B88789859A85AB85BC852FA538A949A98F
S11329C05AA9820F931FA41FB51F89879A87AB87C3
S11329D0BC878D859E85AF85B8892BA93CA94DA957
S11329E05EA9820F931FA41FB51F8D879E87AF8793
S11329F0B88B0FB6F894DEBF0FBECDBFC201D4D1E1
S1132A008DA19EA1805C9F4F9EA38DA390E4290E6F
S1132A10311C0C94BF04C301C7D180E090E0803125
S1132A2091050CF085C0E1E1F0E0EC0FFD1FE80F2B
S1132A30F91F108284309105CCF449815A816B814D
S1132A407C819C01220F331F220F331F220F331F5F
S1132A5004C076956795579547952A95D2F7E1E195
S1132A60F0E0EC0FFD1FE80FF91F40839C01AC015F
S1132A704450510944305105C8F4FA01EE0FFF1FC8
S1132A80EE0FFF1FEE0FFF1F4D815E816F81788572
S1132A9004C07695679557954795EA95D2F7E1E195
S1132AA0F0E0EC0FFD1FE80FF91F4083A901485027
S1132AB0510944305105D0F4FC013897EE0FFF1F43
S1132AC0EE0FFF1FEE0FFF1F49855A856B857C852E
S1132AD004C07695679557954795EA95D2F7E1E155
S1132AE0F0E0EC0FFD1FE80FF91F40832C50310973
S1132AF024303105D8F49C012C503109220F331FA6
S1132B00220F331F220F331F4D855E856F85788911
S1132B1004C076956795579547952A95D2F7E1E1D4
S1132B20F0E0EC0FFD1FE80FF91F4083019677CF0B
S1132B3081E290E0A1D05C01E12CF12C00E010E0F6
S1132B4000311105C4F5E1E1F0E0EC0FFD1FE00FE9
S1132B50F11F80811F928F938FE792E09F938F9351
S1132B604E01A1E28A0E911C9F928F92A6D1F4018C
S1132B7001900020E9F73197E819F9090F900F90B7
S1132B800F900F900F900F90319721F489A18AA391
S1132B9080E389A3F501EE0DFF1D89A18083F70170
S1132BA03196EA0DFB1D8AA180830F5F1F4FB2E0AF
S1132BB0EB0EF11CC5CFF50110A2C501E8960FB6C6
S1132BC0F894DEBF0FBECDBFDF91CF911F910F915F
S1132BD0FF90EF90DF90CF90BF90AF909F908F9039
S1132BE07F906F905F904F903F902F90089524B105
S1132BF0206824B925B1206825B99093CD0080932D
S1132C00CC00E9ECF0E088E980838EE08093CA0090
S1132C1080818B7F80832FEF83ED90E32150804070
S1132C209040E1F700C0000085B185B90895909106
S1132C30C80095FFFCCF8093CE00089597FB10F851
S1132C40169400080F93083098F00850232F342F5F
S1132C50452F562F672F782F892F902DF4CF059469
S1132C6097958795779567955795479537952795C0
S1132C700A95AAF70F9108950F931F93CF93DF93AB
S1132C808230910510F482E090E0E0918402F091AA
S1132C90850220E030E0A0E0B0E0309719F14081F7
S1132CA051810281138148175907C8F08417950789
S1132CB069F4109731F012960C93129713961C93A3
S1132CC027C0009384021093850222C02115310588
S1132CD019F04217530718F49A01BD01EF01DF01FF
S1132CE0F801DBCF21153105F9F0281B390B24300D
S1132CF0310580F48A819B816115710521F0FB0106
S1132D009383828304C09093850280938402FE019E
S1132D10329644C0FE01E20FF31F81939193225037
S1132D203109398328833AC0209182023091830289
S1132D30232B41F420910202309103023093830249
S1132D402093820220910002309101022115310565
S1132D5041F42DB73EB74091040250910502241B63
S1132D60350BE0918202F0918302E217F307A0F49D
S1132D702E1B3F0B2817390778F0AC014E5F5F4FCD
S1132D802417350748F04E0F5F1F5093830240937A
S1132D9082028193919302C0E0E0F0E0CF01DF91E1
S1132DA0CF911F910F910895CF93DF93009709F46A
S1132DB081C0FC01329713821282A0918402B091E7
S1132DC08502109781F420813181820F931F209115
S1132DD08202309183022817390751F5F093830258
S1132DE0E093820267C0ED0120E030E0CE17DF07F8
S1132DF040F44A815B819E0141155105F1F0EA01DD
S1132E00F5CFD383C28340815181840F951FC817A6
S1132E10D90759F488819981840F951F029691836B
S1132E2080838A819B81938382832115310529F4D0
S1132E30F0938502E09384023DC0E901FB83EA83B9
S1132E4049915991C40FD51FEC17FD0761F4808196
S1132E509181840F951F0296E90199838883828169
S1132E6093819B838A83E0E0F0E012968D919C919C
S1132E701397009719F0FD01DC01F7CF8D919C9118
S1132E8011979D012E5F3F4F820F931F2091820265
S1132E90309183022817390769F4309729F4109286
S1132EA085021092840202C013821282B0938302BC
S1132EB0A0938202DF91CF9108950F931F93CF9334
S1132EC0DF93CDB7DEB72E970FB6F894DEBF0FBEF3
S1132ED0CDBF0E891F8986E08C831A8309838FEF07
S1132EE09FE79E838D83AE01465E5F4F688D798D2B
S1132EF0CE01019610D0EF81F885E00FF11F10820A
S1132F002E960FB6F894DEBF0FBECDBFDF91CF91E2
S1132F101F910F9108952F923F924F925F926F925B
S1132F207F928F929F92AF92BF92CF92DF92EF9255
S1132F30FF920F931F93CF93DF93CDB7DEB72B97F9
S1132F400FB6F894DEBF0FBECDBF6C017B018A01C2
S1132F50FC0117821682838181FFBFC1CE010196D5
S1132F603C01F6019381F70193FD859193FF8191D3
S1132F707F01882309F4ADC1853239F493FD85912D
S1132F8093FF81917F01853221F4B60190E0D6D17F
S1132F90E8CF912C212C312CFFE1F315D8F08B32A2
S1132FA079F038F4803279F08332A1F4232D206152
S1132FB01DC08D3261F0803369F4232D216016C069
S1132FC0832D8260382EE32DE4603E2E2AC0F32D3B
S1132FD0F8601DC037FC2DC020ED280F2A3040F0CA
S1132FE08E32B9F436FC75C1232D2064322E19C0FB
S1132FF036FE06C08AE0989E200D1124922E11C040
S1133000EAE02E9E200D1124222EF32DF0623F2E95
S113301008C08C3621F4832D8068382E02C088368F
S113302041F4F70193FD859193FF81917F01811113
S1133030B3CF982F9F7D9554933028F40C5F1F4F86
S11330409FE399830DC0833631F0833771F0833564
S113305009F055C020C0F801808189830E5F1F4F9D
S113306088248394912C530112C02801F2E04F0E5E
S1133070511CF801A080B18036FE03C0692D70E0B8
S113308002C06FEF7FEFC5014ED14C018201F32DD9
S1133090FF773F2E15C0280122E0420E511CF80193
S11330A0A080B18036FE03C0692D70E002C06FEFCE
S11330B07FEFC5012DD14C01F32DF0683F2E820125
S11330C033FC19C0822D90E088169906A0F4B6014D
S11330D080E290E033D12A94F5CFF50137FC859155
S11330E037FE81915F01B60190E028D121102A9426
S11330F021E0821A91088114910479F7E1C08436A1
S113310011F0893639F5F80137FE07C06081718105
S1133110828193810C5F1F4F08C060817181072EEB
S1133120000C880B990B0E5F1F4FF32DFF763F2E7B
S113313097FF09C090958095709561957F4F8F4F4B
S11331409F4FF0683F2E2AE030E0A30133D1882E50
S1133150861844C0853731F4232D2F7EB22E2AE001
S113316030E025C0932D997FB92E8F36C1F018F425
S1133170883579F0AEC0803719F0883721F0A9C0BE
S1133180E92FE061BE2EB4FE0DC0FB2DF460BF2E0E
S113319009C034FE0AC0292F2660B22E06C028E0DA
S11331A030E005C020E130E002C020E132E0F80167
S11331B0B7FE07C060817181828193810C5F1F4FCC
S11331C006C06081718180E090E00E5F1F4FA30113
S11331D0F1D0882E8618FB2DFF773F2E36FE0DC0CA
S11331E0232D2E7FA22E891458F434FE0BC032FCFA
S11331F009C0832D8E7EA82E05C0B82CA32C03C035
S1133200B82C01C0B92CA4FE0FC0FE01E80DF11DBD
S11332108081803321F49A2D997EA92E09C0A2FEC3
S113322006C0B394B39404C08A2D867809F0B3948D
S1133230A3FC10C0A0FE06C0B21480F4280C922C8B
S11332409B180DC0B21458F4B60180E290E076D019
S1133250B394F8CFB21418F42B1802C0982C212C74
S1133260A4FE0FC0B60180E390E068D0A2FE16C0B1
S1133270A1FC03C088E790E002C088E590E0B601B5
S11332800CC08A2D867851F0A1FE02C08BE201C0E9
S113329080E2A7FC8DE2B60190E050D0891430F4AE
S11332A0B60180E390E04AD09A94F8CF8A94F3016F
S11332B0E80DF11D8081B60190E040D08110F6CF79
S11332C0222009F44ECEB60180E290E037D02A9451
S11332D0F7CFF6018681978102C08FEF9FEF2B967F
S11332E00FB6F894DEBF0FBECDBFDF91CF911F9113
S11332F00F91FF90EF90DF90CF90BF90AF909F9091
S11333008F907F906F905F904F903F902F90089593
S1133310FC010590615070400110D8F7809590959C
S11333208E0F9F1F0895FC016150704001900110A1
S1133330D8F7809590958E0F9F1F08950F931F9334
S1133340CF93DF93FB01238121FD03C08FEF9FEF18
S11333502CC022FF16C04681578124813581421733
S1133360530744F4A081B1819D012F5F3F4F318306
S113337020838C93268137812F5F3F4F37832683A9
S113338014C08B01EC01FB010084F185E02D19953B
S1133390892BE1F6D80116968D919C911797019689
S11333A017969C938E931697CE01DF91CF911F9120
S11333B00F910895FA01AA27283051F1203181F1A3
S11333C0E8946F936E7F6E5F7F4F8F4F9F4FAF4F29
S11333D0B1E03ED0B4E03CD0670F781F891F9A1F3C
S11333E0A11D680F791F8A1F911DA11D6A0F711DF0
S11333F0811D911DA11D20D009F468943F912AE0FC
S1133400269F11243019305D3193DEF6CF010895E3
S1133410462F4770405D4193B3E00FD0C9F7F6CF14
S1133420462F4F70405D4A3318F0495D31FD4052DC
S1133430419302D0A9F7EACFB4E0A6959795879572
S113344077956795BA95C9F7009761057105089551
S11334509B01AC010A2E06945795479537952795FD
S1133460BA95C9F7620F731F841F951FA01D089595
S1073470F894FFCFFA
S11334740000860220004256473A20002573256442
S1133484004246473A20002573202573006861737F
S11334946820646174613A200073746C656E3A2028
S11334A4006F76657220636F6D6D616E64006E6F7C
S11334B420636F6D6D616E64004974607320776F6F
S11334C4726B696E672100446973706C6179206959
S11334D47300776F726B21203A292000736563723D
S11334E4657420696E666F726D6174696F6E002510
S10534F478005A
S9030000FC
